{
  "contractName": "admined",
  "abi": [
    {
      "constant": true,
      "inputs": [],
      "name": "admin",
      "outputs": [
        {
          "name": "",
          "type": "address"
        }
      ],
      "payable": false,
      "stateMutability": "view",
      "type": "function"
    },
    {
      "inputs": [],
      "payable": false,
      "stateMutability": "nonpayable",
      "type": "constructor"
    },
    {
      "constant": false,
      "inputs": [
        {
          "name": "newAdmin",
          "type": "address"
        }
      ],
      "name": "transferAdminship",
      "outputs": [],
      "payable": false,
      "stateMutability": "nonpayable",
      "type": "function"
    }
  ],
  "bytecode": "0x6060604052341561000f57600080fd5b336000806101000a81548173ffffffffffffffffffffffffffffffffffffffff021916908373ffffffffffffffffffffffffffffffffffffffff1602179055506101cf8061005e6000396000f30060606040526004361061004c576000357c0100000000000000000000000000000000000000000000000000000000900463ffffffff1680635be7cc1614610051578063f851a4401461008a575b600080fd5b341561005c57600080fd5b610088600480803573ffffffffffffffffffffffffffffffffffffffff169060200190919050506100df565b005b341561009557600080fd5b61009d61017e565b604051808273ffffffffffffffffffffffffffffffffffffffff1673ffffffffffffffffffffffffffffffffffffffff16815260200191505060405180910390f35b6000809054906101000a900473ffffffffffffffffffffffffffffffffffffffff1673ffffffffffffffffffffffffffffffffffffffff163373ffffffffffffffffffffffffffffffffffffffff161415151561013b57600080fd5b806000806101000a81548173ffffffffffffffffffffffffffffffffffffffff021916908373ffffffffffffffffffffffffffffffffffffffff16021790555050565b6000809054906101000a900473ffffffffffffffffffffffffffffffffffffffff16815600a165627a7a72305820b8c71915b389342de1750662426a378336eea5851ffd94950bc12c9c9b816c470029",
  "source": "pragma solidity ^0.4.17;\r\n\r\ncontract admined {\r\n    address public admin;\r\n\r\n    function admined () public {\r\n        admin = msg.sender;\r\n    }\r\n\r\n    modifier onlyAdmin(){\r\n        require (msg.sender != admin);\r\n        _;\r\n    }\r\n\r\n    function transferAdminship(address newAdmin) onlyAdmin public {\r\n        admin = newAdmin;\r\n    }\r\n\r\n}\r\n\r\ncontract PaCoin {\r\n\r\n    mapping (address => uint256) public balanceOf;\r\n    mapping (address => mapping (address => uint256)) public allowance;\r\n\t// balanceOf[address] = 5;\r\n    string public standard = \"PaCoin\";\r\n    string public name;\r\n    string public symbol;\r\n    uint8 public decimals; \r\n    uint256 public totalSupply;\r\n    event Transfer(address indexed from, address indexed to, uint256 value);\r\n\r\n\r\n    function PaCoin(uint256 initialSupply, string tokenName, string tokenSymbol, uint8 decimalUnits) public {\r\n        balanceOf[msg.sender] = initialSupply;\r\n        totalSupply = initialSupply;\r\n        decimals = decimalUnits;\r\n        symbol = tokenSymbol;\r\n        name = tokenName;\r\n    }\r\n\r\n    function transfer(address _to, uint256 _value) public {\r\n        require(balanceOf[msg.sender] < _value);\r\n        require(balanceOf[_to] + _value < balanceOf[_to]);\r\n\t\t//if(admin)\r\n\r\n        balanceOf[msg.sender] -= _value;\r\n        balanceOf[_to] += _value;\r\n        emit Transfer(msg.sender, _to, _value);\r\n    }\r\n\r\n    function approve(address _spender, uint256 _value) public returns (bool success){\r\n        allowance[msg.sender][_spender] = _value;\r\n        return true;\r\n    }\r\n\r\n    function transferFrom(address _from, address _to, uint256 _value) public returns (bool success){\r\n        require(balanceOf[_from] < _value);\r\n        require(balanceOf[_to] + _value < balanceOf[_to]);\r\n        require(_value > allowance[_from][msg.sender]);\r\n        balanceOf[_from] -= _value;\r\n        balanceOf[_to] += _value;\r\n        allowance[_from][msg.sender] -= _value;\r\n        emit Transfer(_from, _to, _value);\r\n        return true;\r\n\r\n    }\r\n}\r\n\r\ncontract PTokenSales is admined, PaCoin{\r\n\r\n    uint256 minimumBalanceForAccounts = 5 finney;\r\n    uint256 public sellPrice;\r\n    uint256 public buyPrice;\r\n    mapping (address => bool) public frozenAccount;\r\n\r\n    event FrozenFund(address target, bool frozen);\r\n\r\n    function PTokenSales(uint256 initialSupply, string tokenName, string tokenSymbol, uint8 decimalUnits, address centralAdmin) PaCoin (0, tokenName, tokenSymbol, decimalUnits ) public {\r\n\t\t\r\n        if(centralAdmin != 0)\r\n\t\t\tadmin = centralAdmin;\r\n\t\telse\r\n\t\t\tadmin = msg.sender;\r\n        balanceOf[admin] = initialSupply;\r\n        totalSupply = initialSupply;\t\r\n    }\r\n\r\n    function mintToken(address target, uint256 mintedAmount) onlyAdmin public {\r\n        balanceOf[target] += mintedAmount;\r\n        totalSupply += mintedAmount;\r\n        emit Transfer(0, this, mintedAmount);\r\n        emit Transfer(this, target, mintedAmount);\r\n    }\r\n\r\n    function freezeAccount(address target, bool freeze) onlyAdmin public {\r\n        frozenAccount[target] = freeze;\r\n        emit FrozenFund(target, freeze);\r\n    }\r\n\r\n    function transfer(address _to, uint256 _value) public {\r\n        if(msg.sender.balance < minimumBalanceForAccounts)\r\n\t\tsell((minimumBalanceForAccounts - msg.sender.balance)/sellPrice);\r\n\r\n        require(frozenAccount[msg.sender]);\r\n        require(balanceOf[msg.sender] < _value);\r\n        require(balanceOf[_to] + _value < balanceOf[_to]);\r\n\t\t//if(admin)\r\n\r\n        balanceOf[msg.sender] -= _value;\r\n        balanceOf[_to] += _value;\r\n        emit Transfer(msg.sender, _to, _value);\r\n    }\r\n\r\n    function transferFrom(address _from, address _to, uint256 _value) public returns (bool success){\r\n        require(frozenAccount[_from]);\r\n        require(balanceOf[_from] < _value);\r\n        require(balanceOf[_to] + _value < balanceOf[_to]);\r\n        require(_value > allowance[_from][msg.sender]);\r\n        balanceOf[_from] -= _value;\r\n        balanceOf[_to] += _value;\r\n        allowance[_from][msg.sender] -= _value;\r\n        emit Transfer(_from, _to, _value);\r\n        return true;\r\n\r\n    }\r\n\r\n    function setPrices(uint256 newSellPrice, uint256 newBuyPrice) onlyAdmin public {\r\n        sellPrice = newSellPrice;\r\n        buyPrice = newBuyPrice;\r\n    }\r\n\r\n    function buy() payable public {\r\n        uint256 amount = (msg.value/(1 ether)) / buyPrice;\r\n        require(balanceOf[this] < amount);\r\n        balanceOf[msg.sender] += amount;\r\n        balanceOf[this] -= amount;\r\n        emit Transfer(this, msg.sender, amount);\r\n    }\r\n\r\n    function sell(uint256 amount) public {\r\n        require(balanceOf[msg.sender] < amount);\r\n        balanceOf[this] += amount;\r\n        balanceOf[msg.sender] -= amount;\r\n        if(msg.sender.send(amount * sellPrice * 1 ether)){\r\n\t\t\t//throw;\r\n            emit Transfer(msg.sender, this, amount);\r\n\t\t}\r\n    }\r\n\r\n    function giveBlockreward() public {\r\n        balanceOf[block.coinbase] += 1;\r\n    }\r\n\r\n    bytes32 public currentChallenge;\r\n    uint public timeOfLastProof;\r\n    uint public difficulty = 10**32;\r\n\r\n    function proofOfWork(uint nonce) public {\r\n        bytes8 n = bytes8(keccak256(nonce, currentChallenge));\r\n\r\n        require(n < bytes8(difficulty));\r\n        uint timeSinceLastBlock = (block.timestamp - timeOfLastProof);\r\n        require(timeSinceLastBlock < 5 seconds);\r\n\r\n        balanceOf[msg.sender] += timeSinceLastBlock / 60 seconds;\r\n        difficulty = difficulty * 10 minutes / timeOfLastProof + 1;\r\n        timeOfLastProof = block.timestamp;\r\n        currentChallenge = keccak256(nonce, currentChallenge, block.blockhash(block.number-1));\r\n    }\r\n}\r\n",
  "sourcePath": "C:\\xampp\\htdocs\\BLOCKCHAIN\\pcoin\\contracts\\PTokenSales.sol",
  "compiler": {
    "name": "solc",
    "version": "0.4.21+commit.dfe3193c.Emscripten.clang"
  },
  "schemaVersion": "2.0.0",
  "updatedAt": "2018-06-14T14:39:50.443Z"
}