{
  "contractName": "PTokenSales",
  "abi": [
    {
      "constant": true,
      "inputs": [],
      "name": "name",
      "outputs": [
        {
          "name": "",
          "type": "string"
        }
      ],
      "payable": false,
      "stateMutability": "view",
      "type": "function"
    },
    {
      "constant": false,
      "inputs": [
        {
          "name": "_spender",
          "type": "address"
        },
        {
          "name": "_value",
          "type": "uint256"
        }
      ],
      "name": "approve",
      "outputs": [
        {
          "name": "success",
          "type": "bool"
        }
      ],
      "payable": false,
      "stateMutability": "nonpayable",
      "type": "function"
    },
    {
      "constant": true,
      "inputs": [],
      "name": "totalSupply",
      "outputs": [
        {
          "name": "",
          "type": "uint256"
        }
      ],
      "payable": false,
      "stateMutability": "view",
      "type": "function"
    },
    {
      "constant": true,
      "inputs": [],
      "name": "difficulty",
      "outputs": [
        {
          "name": "",
          "type": "uint256"
        }
      ],
      "payable": false,
      "stateMutability": "view",
      "type": "function"
    },
    {
      "constant": true,
      "inputs": [],
      "name": "decimals",
      "outputs": [
        {
          "name": "",
          "type": "uint8"
        }
      ],
      "payable": false,
      "stateMutability": "view",
      "type": "function"
    },
    {
      "constant": true,
      "inputs": [],
      "name": "sellPrice",
      "outputs": [
        {
          "name": "",
          "type": "uint256"
        }
      ],
      "payable": false,
      "stateMutability": "view",
      "type": "function"
    },
    {
      "constant": true,
      "inputs": [],
      "name": "currentChallenge",
      "outputs": [
        {
          "name": "",
          "type": "bytes32"
        }
      ],
      "payable": false,
      "stateMutability": "view",
      "type": "function"
    },
    {
      "constant": true,
      "inputs": [],
      "name": "standard",
      "outputs": [
        {
          "name": "",
          "type": "string"
        }
      ],
      "payable": false,
      "stateMutability": "view",
      "type": "function"
    },
    {
      "constant": false,
      "inputs": [
        {
          "name": "newAdmin",
          "type": "address"
        }
      ],
      "name": "transferAdminship",
      "outputs": [],
      "payable": false,
      "stateMutability": "nonpayable",
      "type": "function"
    },
    {
      "constant": true,
      "inputs": [
        {
          "name": "",
          "type": "address"
        }
      ],
      "name": "balanceOf",
      "outputs": [
        {
          "name": "",
          "type": "uint256"
        }
      ],
      "payable": false,
      "stateMutability": "view",
      "type": "function"
    },
    {
      "constant": true,
      "inputs": [],
      "name": "timeOfLastProof",
      "outputs": [
        {
          "name": "",
          "type": "uint256"
        }
      ],
      "payable": false,
      "stateMutability": "view",
      "type": "function"
    },
    {
      "constant": true,
      "inputs": [],
      "name": "buyPrice",
      "outputs": [
        {
          "name": "",
          "type": "uint256"
        }
      ],
      "payable": false,
      "stateMutability": "view",
      "type": "function"
    },
    {
      "constant": true,
      "inputs": [],
      "name": "symbol",
      "outputs": [
        {
          "name": "",
          "type": "string"
        }
      ],
      "payable": false,
      "stateMutability": "view",
      "type": "function"
    },
    {
      "constant": true,
      "inputs": [
        {
          "name": "",
          "type": "address"
        }
      ],
      "name": "frozenAccount",
      "outputs": [
        {
          "name": "",
          "type": "bool"
        }
      ],
      "payable": false,
      "stateMutability": "view",
      "type": "function"
    },
    {
      "constant": true,
      "inputs": [
        {
          "name": "",
          "type": "address"
        },
        {
          "name": "",
          "type": "address"
        }
      ],
      "name": "allowance",
      "outputs": [
        {
          "name": "",
          "type": "uint256"
        }
      ],
      "payable": false,
      "stateMutability": "view",
      "type": "function"
    },
    {
      "constant": true,
      "inputs": [],
      "name": "admin",
      "outputs": [
        {
          "name": "",
          "type": "address"
        }
      ],
      "payable": false,
      "stateMutability": "view",
      "type": "function"
    },
    {
      "inputs": [
        {
          "name": "initialSupply",
          "type": "uint256"
        },
        {
          "name": "tokenName",
          "type": "string"
        },
        {
          "name": "tokenSymbol",
          "type": "string"
        },
        {
          "name": "decimalUnits",
          "type": "uint8"
        },
        {
          "name": "centralAdmin",
          "type": "address"
        }
      ],
      "payable": false,
      "stateMutability": "nonpayable",
      "type": "constructor"
    },
    {
      "anonymous": false,
      "inputs": [
        {
          "indexed": false,
          "name": "target",
          "type": "address"
        },
        {
          "indexed": false,
          "name": "frozen",
          "type": "bool"
        }
      ],
      "name": "FrozenFund",
      "type": "event"
    },
    {
      "anonymous": false,
      "inputs": [
        {
          "indexed": true,
          "name": "from",
          "type": "address"
        },
        {
          "indexed": true,
          "name": "to",
          "type": "address"
        },
        {
          "indexed": false,
          "name": "value",
          "type": "uint256"
        }
      ],
      "name": "Transfer",
      "type": "event"
    },
    {
      "constant": false,
      "inputs": [
        {
          "name": "target",
          "type": "address"
        },
        {
          "name": "mintedAmount",
          "type": "uint256"
        }
      ],
      "name": "mintToken",
      "outputs": [],
      "payable": false,
      "stateMutability": "nonpayable",
      "type": "function"
    },
    {
      "constant": false,
      "inputs": [
        {
          "name": "target",
          "type": "address"
        },
        {
          "name": "freeze",
          "type": "bool"
        }
      ],
      "name": "freezeAccount",
      "outputs": [],
      "payable": false,
      "stateMutability": "nonpayable",
      "type": "function"
    },
    {
      "constant": false,
      "inputs": [
        {
          "name": "_to",
          "type": "address"
        },
        {
          "name": "_value",
          "type": "uint256"
        }
      ],
      "name": "transfer",
      "outputs": [],
      "payable": false,
      "stateMutability": "nonpayable",
      "type": "function"
    },
    {
      "constant": false,
      "inputs": [
        {
          "name": "_from",
          "type": "address"
        },
        {
          "name": "_to",
          "type": "address"
        },
        {
          "name": "_value",
          "type": "uint256"
        }
      ],
      "name": "transferFrom",
      "outputs": [
        {
          "name": "success",
          "type": "bool"
        }
      ],
      "payable": false,
      "stateMutability": "nonpayable",
      "type": "function"
    },
    {
      "constant": false,
      "inputs": [
        {
          "name": "newSellPrice",
          "type": "uint256"
        },
        {
          "name": "newBuyPrice",
          "type": "uint256"
        }
      ],
      "name": "setPrices",
      "outputs": [],
      "payable": false,
      "stateMutability": "nonpayable",
      "type": "function"
    },
    {
      "constant": false,
      "inputs": [],
      "name": "buy",
      "outputs": [],
      "payable": true,
      "stateMutability": "payable",
      "type": "function"
    },
    {
      "constant": false,
      "inputs": [
        {
          "name": "amount",
          "type": "uint256"
        }
      ],
      "name": "sell",
      "outputs": [],
      "payable": false,
      "stateMutability": "nonpayable",
      "type": "function"
    },
    {
      "constant": false,
      "inputs": [],
      "name": "giveBlockreward",
      "outputs": [],
      "payable": false,
      "stateMutability": "nonpayable",
      "type": "function"
    },
    {
      "constant": false,
      "inputs": [
        {
          "name": "nonce",
          "type": "uint256"
        }
      ],
      "name": "proofOfWork",
      "outputs": [],
      "payable": false,
      "stateMutability": "nonpayable",
      "type": "function"
    }
  ],
  "bytecode": "0x60606040526040805190810160405280600681526020017f5061436f696e00000000000000000000000000000000000000000000000000008152506003908051906020019062000051929190620002c0565b506611c37937e080006008556d04ee2d6d415b85acef8100000000600e5534156200007b57600080fd5b60405162001cfc38038062001cfc833981016040528080519060200190919080518201919060200180518201919060200180519060200190919080519060200190919050506000848484336000806101000a81548173ffffffffffffffffffffffffffffffffffffffff021916908373ffffffffffffffffffffffffffffffffffffffff16021790555083600160003373ffffffffffffffffffffffffffffffffffffffff1673ffffffffffffffffffffffffffffffffffffffff168152602001908152602001600020819055508360078190555080600660006101000a81548160ff021916908360ff160217905550816005908051906020019062000183929190620002c0565b5082600490805190602001906200019c929190620002c0565b505050505060008173ffffffffffffffffffffffffffffffffffffffff161415156200020857806000806101000a81548173ffffffffffffffffffffffffffffffffffffffff021916908373ffffffffffffffffffffffffffffffffffffffff16021790555062000249565b336000806101000a81548173ffffffffffffffffffffffffffffffffffffffff021916908373ffffffffffffffffffffffffffffffffffffffff1602179055505b84600160008060009054906101000a900473ffffffffffffffffffffffffffffffffffffffff1673ffffffffffffffffffffffffffffffffffffffff1673ffffffffffffffffffffffffffffffffffffffff168152602001908152602001600020819055508460078190555050505050506200036f565b828054600181600116156101000203166002900490600052602060002090601f016020900481019282601f106200030357805160ff191683800117855562000334565b8280016001018555821562000334579182015b828111156200033357825182559160200191906001019062000316565b5b50905062000343919062000347565b5090565b6200036c91905b80821115620003685760008160009055506001016200034e565b5090565b90565b61197d806200037f6000396000f300606060405260043610610149576000357c0100000000000000000000000000000000000000000000000000000000900463ffffffff16806305fefda71461014e57806306fdde031461017a578063095ea7b31461020857806318160ddd1461026257806319cae4621461028b57806323b872dd146102b4578063313ce5671461032d5780634b7503341461035c57806351bdd585146103855780635a3b7e42146103b65780635be7cc16146104445780635c10fe081461047d57806370a08231146104a057806379c65068146104ed57806381c8149d1461052f5780638620410b146105585780639085e88d1461058157806395d89b4114610596578063a6f2ae3a14610624578063a9059cbb1461062e578063b414d4b614610670578063dd62ed3e146106c1578063e4849b321461072d578063e724529c14610750578063f851a44014610794575b600080fd5b341561015957600080fd5b61017860048080359060200190919080359060200190919050506107e9565b005b341561018557600080fd5b61018d610857565b6040518080602001828103825283818151815260200191508051906020019080838360005b838110156101cd5780820151818401526020810190506101b2565b50505050905090810190601f1680156101fa5780820380516001836020036101000a031916815260200191505b509250505060405180910390f35b341561021357600080fd5b610248600480803573ffffffffffffffffffffffffffffffffffffffff169060200190919080359060200190919050506108f5565b604051808215151515815260200191505060405180910390f35b341561026d57600080fd5b610275610982565b6040518082815260200191505060405180910390f35b341561029657600080fd5b61029e610988565b6040518082815260200191505060405180910390f35b34156102bf57600080fd5b610313600480803573ffffffffffffffffffffffffffffffffffffffff1690602001909190803573ffffffffffffffffffffffffffffffffffffffff1690602001909190803590602001909190505061098e565b604051808215151515815260200191505060405180910390f35b341561033857600080fd5b610340610ce1565b604051808260ff1660ff16815260200191505060405180910390f35b341561036757600080fd5b61036f610cf4565b6040518082815260200191505060405180910390f35b341561039057600080fd5b610398610cfa565b60405180826000191660001916815260200191505060405180910390f35b34156103c157600080fd5b6103c9610d00565b6040518080602001828103825283818151815260200191508051906020019080838360005b838110156104095780820151818401526020810190506103ee565b50505050905090810190601f1680156104365780820380516001836020036101000a031916815260200191505b509250505060405180910390f35b341561044f57600080fd5b61047b600480803573ffffffffffffffffffffffffffffffffffffffff16906020019091905050610d9e565b005b341561048857600080fd5b61049e6004808035906020019091905050610e3d565b005b34156104ab57600080fd5b6104d7600480803573ffffffffffffffffffffffffffffffffffffffff16906020019091905050610fa9565b6040518082815260200191505060405180910390f35b34156104f857600080fd5b61052d600480803573ffffffffffffffffffffffffffffffffffffffff16906020019091908035906020019091905050610fc1565b005b341561053a57600080fd5b610542611133565b6040518082815260200191505060405180910390f35b341561056357600080fd5b61056b611139565b6040518082815260200191505060405180910390f35b341561058c57600080fd5b61059461113f565b005b34156105a157600080fd5b6105a961118e565b6040518080602001828103825283818151815260200191508051906020019080838360005b838110156105e95780820151818401526020810190506105ce565b50505050905090810190601f1680156106165780820380516001836020036101000a031916815260200191505b509250505060405180910390f35b61062c61122c565b005b341561063957600080fd5b61066e600480803573ffffffffffffffffffffffffffffffffffffffff169060200190919080359060200190919050506113a0565b005b341561067b57600080fd5b6106a7600480803573ffffffffffffffffffffffffffffffffffffffff16906020019091905050611629565b604051808215151515815260200191505060405180910390f35b34156106cc57600080fd5b610717600480803573ffffffffffffffffffffffffffffffffffffffff1690602001909190803573ffffffffffffffffffffffffffffffffffffffff16906020019091905050611649565b6040518082815260200191505060405180910390f35b341561073857600080fd5b61074e600480803590602001909190505061166e565b005b341561075b57600080fd5b610792600480803573ffffffffffffffffffffffffffffffffffffffff169060200190919080351515906020019091905050611806565b005b341561079f57600080fd5b6107a761192c565b604051808273ffffffffffffffffffffffffffffffffffffffff1673ffffffffffffffffffffffffffffffffffffffff16815260200191505060405180910390f35b6000809054906101000a900473ffffffffffffffffffffffffffffffffffffffff1673ffffffffffffffffffffffffffffffffffffffff163373ffffffffffffffffffffffffffffffffffffffff161415151561084557600080fd5b8160098190555080600a819055505050565b60048054600181600116156101000203166002900480601f0160208091040260200160405190810160405280929190818152602001828054600181600116156101000203166002900480156108ed5780601f106108c2576101008083540402835291602001916108ed565b820191906000526020600020905b8154815290600101906020018083116108d057829003601f168201915b505050505081565b600081600260003373ffffffffffffffffffffffffffffffffffffffff1673ffffffffffffffffffffffffffffffffffffffff16815260200190815260200160002060008573ffffffffffffffffffffffffffffffffffffffff1673ffffffffffffffffffffffffffffffffffffffff168152602001908152602001600020819055506001905092915050565b60075481565b600e5481565b6000600b60008573ffffffffffffffffffffffffffffffffffffffff1673ffffffffffffffffffffffffffffffffffffffff16815260200190815260200160002060009054906101000a900460ff1615156109e857600080fd5b81600160008673ffffffffffffffffffffffffffffffffffffffff1673ffffffffffffffffffffffffffffffffffffffff16815260200190815260200160002054101515610a3557600080fd5b600160008473ffffffffffffffffffffffffffffffffffffffff1673ffffffffffffffffffffffffffffffffffffffff1681526020019081526020016000205482600160008673ffffffffffffffffffffffffffffffffffffffff1673ffffffffffffffffffffffffffffffffffffffff1681526020019081526020016000205401101515610ac357600080fd5b600260008573ffffffffffffffffffffffffffffffffffffffff1673ffffffffffffffffffffffffffffffffffffffff16815260200190815260200160002060003373ffffffffffffffffffffffffffffffffffffffff1673ffffffffffffffffffffffffffffffffffffffff1681526020019081526020016000205482111515610b4d57600080fd5b81600160008673ffffffffffffffffffffffffffffffffffffffff1673ffffffffffffffffffffffffffffffffffffffff1681526020019081526020016000206000828254039250508190555081600160008573ffffffffffffffffffffffffffffffffffffffff1673ffffffffffffffffffffffffffffffffffffffff1681526020019081526020016000206000828254019250508190555081600260008673ffffffffffffffffffffffffffffffffffffffff1673ffffffffffffffffffffffffffffffffffffffff16815260200190815260200160002060003373ffffffffffffffffffffffffffffffffffffffff1673ffffffffffffffffffffffffffffffffffffffff168152602001908152602001600020600082825403925050819055508273ffffffffffffffffffffffffffffffffffffffff168473ffffffffffffffffffffffffffffffffffffffff167fddf252ad1be2c89b69c2b068fc378daa952ba7f163c4a11628f55a4df523b3ef846040518082815260200191505060405180910390a3600190509392505050565b600660009054906101000a900460ff1681565b60095481565b600c5481565b60038054600181600116156101000203166002900480601f016020809104026020016040519081016040528092919081815260200182805460018160011615610100020316600290048015610d965780601f10610d6b57610100808354040283529160200191610d96565b820191906000526020600020905b815481529060010190602001808311610d7957829003601f168201915b505050505081565b6000809054906101000a900473ffffffffffffffffffffffffffffffffffffffff1673ffffffffffffffffffffffffffffffffffffffff163373ffffffffffffffffffffffffffffffffffffffff1614151515610dfa57600080fd5b806000806101000a81548173ffffffffffffffffffffffffffffffffffffffff021916908373ffffffffffffffffffffffffffffffffffffffff16021790555050565b60008082600c546040518083815260200182600019166000191681526020019250505060405180910390209150600e5478010000000000000000000000000000000000000000000000000277ffffffffffffffffffffffffffffffffffffffffffffffff19168277ffffffffffffffffffffffffffffffffffffffffffffffff1916101515610ecb57600080fd5b600d5442039050600581101515610ee157600080fd5b603c81811515610eed57fe5b04600160003373ffffffffffffffffffffffffffffffffffffffff1673ffffffffffffffffffffffffffffffffffffffff168152602001908152602001600020600082825401925050819055506001600d54610258600e5402811515610f4f57fe5b0401600e8190555042600d8190555082600c546001430340604051808481526020018360001916600019168152602001826000191660001916815260200193505050506040518091039020600c8160001916905550505050565b60016020528060005260406000206000915090505481565b6000809054906101000a900473ffffffffffffffffffffffffffffffffffffffff1673ffffffffffffffffffffffffffffffffffffffff163373ffffffffffffffffffffffffffffffffffffffff161415151561101d57600080fd5b80600160008473ffffffffffffffffffffffffffffffffffffffff1673ffffffffffffffffffffffffffffffffffffffff16815260200190815260200160002060008282540192505081905550806007600082825401925050819055503073ffffffffffffffffffffffffffffffffffffffff1660007fddf252ad1be2c89b69c2b068fc378daa952ba7f163c4a11628f55a4df523b3ef836040518082815260200191505060405180910390a38173ffffffffffffffffffffffffffffffffffffffff163073ffffffffffffffffffffffffffffffffffffffff167fddf252ad1be2c89b69c2b068fc378daa952ba7f163c4a11628f55a4df523b3ef836040518082815260200191505060405180910390a35050565b600d5481565b600a5481565b60018060004173ffffffffffffffffffffffffffffffffffffffff1673ffffffffffffffffffffffffffffffffffffffff16815260200190815260200160002060008282540192505081905550565b60058054600181600116156101000203166002900480601f0160208091040260200160405190810160405280929190818152602001828054600181600116156101000203166002900480156112245780601f106111f957610100808354040283529160200191611224565b820191906000526020600020905b81548152906001019060200180831161120757829003601f168201915b505050505081565b6000600a54670de0b6b3a76400003481151561124457fe5b0481151561124e57fe5b04905080600160003073ffffffffffffffffffffffffffffffffffffffff1673ffffffffffffffffffffffffffffffffffffffff1681526020019081526020016000205410151561129e57600080fd5b80600160003373ffffffffffffffffffffffffffffffffffffffff1673ffffffffffffffffffffffffffffffffffffffff1681526020019081526020016000206000828254019250508190555080600160003073ffffffffffffffffffffffffffffffffffffffff1673ffffffffffffffffffffffffffffffffffffffff168152602001908152602001600020600082825403925050819055503373ffffffffffffffffffffffffffffffffffffffff163073ffffffffffffffffffffffffffffffffffffffff167fddf252ad1be2c89b69c2b068fc378daa952ba7f163c4a11628f55a4df523b3ef836040518082815260200191505060405180910390a350565b6008543373ffffffffffffffffffffffffffffffffffffffff163110156113f3576113f26009543373ffffffffffffffffffffffffffffffffffffffff1631600854038115156113ec57fe5b0461166e565b5b600b60003373ffffffffffffffffffffffffffffffffffffffff1673ffffffffffffffffffffffffffffffffffffffff16815260200190815260200160002060009054906101000a900460ff16151561144b57600080fd5b80600160003373ffffffffffffffffffffffffffffffffffffffff1673ffffffffffffffffffffffffffffffffffffffff1681526020019081526020016000205410151561149857600080fd5b600160008373ffffffffffffffffffffffffffffffffffffffff1673ffffffffffffffffffffffffffffffffffffffff1681526020019081526020016000205481600160008573ffffffffffffffffffffffffffffffffffffffff1673ffffffffffffffffffffffffffffffffffffffff168152602001908152602001600020540110151561152657600080fd5b80600160003373ffffffffffffffffffffffffffffffffffffffff1673ffffffffffffffffffffffffffffffffffffffff1681526020019081526020016000206000828254039250508190555080600160008473ffffffffffffffffffffffffffffffffffffffff1673ffffffffffffffffffffffffffffffffffffffff168152602001908152602001600020600082825401925050819055508173ffffffffffffffffffffffffffffffffffffffff163373ffffffffffffffffffffffffffffffffffffffff167fddf252ad1be2c89b69c2b068fc378daa952ba7f163c4a11628f55a4df523b3ef836040518082815260200191505060405180910390a35050565b600b6020528060005260406000206000915054906101000a900460ff1681565b6002602052816000526040600020602052806000526040600020600091509150505481565b80600160003373ffffffffffffffffffffffffffffffffffffffff1673ffffffffffffffffffffffffffffffffffffffff168152602001908152602001600020541015156116bb57600080fd5b80600160003073ffffffffffffffffffffffffffffffffffffffff1673ffffffffffffffffffffffffffffffffffffffff1681526020019081526020016000206000828254019250508190555080600160003373ffffffffffffffffffffffffffffffffffffffff1673ffffffffffffffffffffffffffffffffffffffff168152602001908152602001600020600082825403925050819055503373ffffffffffffffffffffffffffffffffffffffff166108fc670de0b6b3a76400006009548402029081150290604051600060405180830381858888f1935050505015611803573073ffffffffffffffffffffffffffffffffffffffff163373ffffffffffffffffffffffffffffffffffffffff167fddf252ad1be2c89b69c2b068fc378daa952ba7f163c4a11628f55a4df523b3ef836040518082815260200191505060405180910390a35b50565b6000809054906101000a900473ffffffffffffffffffffffffffffffffffffffff1673ffffffffffffffffffffffffffffffffffffffff163373ffffffffffffffffffffffffffffffffffffffff161415151561186257600080fd5b80600b60008473ffffffffffffffffffffffffffffffffffffffff1673ffffffffffffffffffffffffffffffffffffffff16815260200190815260200160002060006101000a81548160ff0219169083151502179055507f5ea9caffecf85bd277bd191ab41dd68c548f001913f64c16c3a9abe77dce2de58282604051808373ffffffffffffffffffffffffffffffffffffffff1673ffffffffffffffffffffffffffffffffffffffff168152602001821515151581526020019250505060405180910390a15050565b6000809054906101000a900473ffffffffffffffffffffffffffffffffffffffff16815600a165627a7a72305820d3f454094624fbd2baa0b9dfb7b913ce768e85331181b86e7257a90970b024e70029",
  "source": "pragma solidity ^0.4.17;\r\n\r\ncontract admined {\r\n    address public admin;\r\n\r\n    function admined () public {\r\n        admin = msg.sender;\r\n    }\r\n\r\n    modifier onlyAdmin(){\r\n        require (msg.sender != admin);\r\n        _;\r\n    }\r\n\r\n    function transferAdminship(address newAdmin) onlyAdmin public {\r\n        admin = newAdmin;\r\n    }\r\n\r\n}\r\n\r\ncontract PaCoin {\r\n\r\n    mapping (address => uint256) public balanceOf;\r\n    mapping (address => mapping (address => uint256)) public allowance;\r\n\t// balanceOf[address] = 5;\r\n    string public standard = \"PaCoin\";\r\n    string public name;\r\n    string public symbol;\r\n    uint8 public decimals; \r\n    uint256 public totalSupply;\r\n    event Transfer(address indexed from, address indexed to, uint256 value);\r\n\r\n\r\n    function PaCoin(uint256 initialSupply, string tokenName, string tokenSymbol, uint8 decimalUnits) public {\r\n        balanceOf[msg.sender] = initialSupply;\r\n        totalSupply = initialSupply;\r\n        decimals = decimalUnits;\r\n        symbol = tokenSymbol;\r\n        name = tokenName;\r\n    }\r\n\r\n    function transfer(address _to, uint256 _value) public {\r\n        require(balanceOf[msg.sender] < _value);\r\n        require(balanceOf[_to] + _value < balanceOf[_to]);\r\n\t\t//if(admin)\r\n\r\n        balanceOf[msg.sender] -= _value;\r\n        balanceOf[_to] += _value;\r\n        emit Transfer(msg.sender, _to, _value);\r\n    }\r\n\r\n    function approve(address _spender, uint256 _value) public returns (bool success){\r\n        allowance[msg.sender][_spender] = _value;\r\n        return true;\r\n    }\r\n\r\n    function transferFrom(address _from, address _to, uint256 _value) public returns (bool success){\r\n        require(balanceOf[_from] < _value);\r\n        require(balanceOf[_to] + _value < balanceOf[_to]);\r\n        require(_value > allowance[_from][msg.sender]);\r\n        balanceOf[_from] -= _value;\r\n        balanceOf[_to] += _value;\r\n        allowance[_from][msg.sender] -= _value;\r\n        emit Transfer(_from, _to, _value);\r\n        return true;\r\n\r\n    }\r\n}\r\n\r\ncontract PTokenSales is admined, PaCoin{\r\n\r\n    uint256 minimumBalanceForAccounts = 5 finney;\r\n    uint256 public sellPrice;\r\n    uint256 public buyPrice;\r\n    mapping (address => bool) public frozenAccount;\r\n\r\n    event FrozenFund(address target, bool frozen);\r\n\r\n    function PTokenSales(uint256 initialSupply, string tokenName, string tokenSymbol, uint8 decimalUnits, address centralAdmin) PaCoin (0, tokenName, tokenSymbol, decimalUnits ) public {\r\n\t\t\r\n        if(centralAdmin != 0)\r\n\t\t\tadmin = centralAdmin;\r\n\t\telse\r\n\t\t\tadmin = msg.sender;\r\n        balanceOf[admin] = initialSupply;\r\n        totalSupply = initialSupply;\t\r\n    }\r\n\r\n    function mintToken(address target, uint256 mintedAmount) onlyAdmin public {\r\n        balanceOf[target] += mintedAmount;\r\n        totalSupply += mintedAmount;\r\n        emit Transfer(0, this, mintedAmount);\r\n        emit Transfer(this, target, mintedAmount);\r\n    }\r\n\r\n    function freezeAccount(address target, bool freeze) onlyAdmin public {\r\n        frozenAccount[target] = freeze;\r\n        emit FrozenFund(target, freeze);\r\n    }\r\n\r\n    function transfer(address _to, uint256 _value) public {\r\n        if(msg.sender.balance < minimumBalanceForAccounts)\r\n\t\tsell((minimumBalanceForAccounts - msg.sender.balance)/sellPrice);\r\n\r\n        require(frozenAccount[msg.sender]);\r\n        require(balanceOf[msg.sender] < _value);\r\n        require(balanceOf[_to] + _value < balanceOf[_to]);\r\n\t\t//if(admin)\r\n\r\n        balanceOf[msg.sender] -= _value;\r\n        balanceOf[_to] += _value;\r\n        emit Transfer(msg.sender, _to, _value);\r\n    }\r\n\r\n    function transferFrom(address _from, address _to, uint256 _value) public returns (bool success){\r\n        require(frozenAccount[_from]);\r\n        require(balanceOf[_from] < _value);\r\n        require(balanceOf[_to] + _value < balanceOf[_to]);\r\n        require(_value > allowance[_from][msg.sender]);\r\n        balanceOf[_from] -= _value;\r\n        balanceOf[_to] += _value;\r\n        allowance[_from][msg.sender] -= _value;\r\n        emit Transfer(_from, _to, _value);\r\n        return true;\r\n\r\n    }\r\n\r\n    function setPrices(uint256 newSellPrice, uint256 newBuyPrice) onlyAdmin public {\r\n        sellPrice = newSellPrice;\r\n        buyPrice = newBuyPrice;\r\n    }\r\n\r\n    function buy() payable public {\r\n        uint256 amount = (msg.value/(1 ether)) / buyPrice;\r\n        require(balanceOf[this] < amount);\r\n        balanceOf[msg.sender] += amount;\r\n        balanceOf[this] -= amount;\r\n        emit Transfer(this, msg.sender, amount);\r\n    }\r\n\r\n    function sell(uint256 amount) public {\r\n        require(balanceOf[msg.sender] < amount);\r\n        balanceOf[this] += amount;\r\n        balanceOf[msg.sender] -= amount;\r\n        if(msg.sender.send(amount * sellPrice * 1 ether)){\r\n\t\t\t//throw;\r\n            emit Transfer(msg.sender, this, amount);\r\n\t\t}\r\n    }\r\n\r\n    function giveBlockreward() public {\r\n        balanceOf[block.coinbase] += 1;\r\n    }\r\n\r\n    bytes32 public currentChallenge;\r\n    uint public timeOfLastProof;\r\n    uint public difficulty = 10**32;\r\n\r\n    function proofOfWork(uint nonce) public {\r\n        bytes8 n = bytes8(keccak256(nonce, currentChallenge));\r\n\r\n        require(n < bytes8(difficulty));\r\n        uint timeSinceLastBlock = (block.timestamp - timeOfLastProof);\r\n        require(timeSinceLastBlock < 5 seconds);\r\n\r\n        balanceOf[msg.sender] += timeSinceLastBlock / 60 seconds;\r\n        difficulty = difficulty * 10 minutes / timeOfLastProof + 1;\r\n        timeOfLastProof = block.timestamp;\r\n        currentChallenge = keccak256(nonce, currentChallenge, block.blockhash(block.number-1));\r\n    }\r\n}\r\n",
  "sourcePath": "C:\\xampp\\htdocs\\BLOCKCHAIN\\pcoin\\contracts\\PTokenSales.sol",
  "compiler": {
    "name": "solc",
    "version": "0.4.21+commit.dfe3193c.Emscripten.clang"
  },
  "schemaVersion": "2.0.0",
  "updatedAt": "2018-06-14T14:44:50.445Z"
}