{
  "contractName": "PTokenSales",
  "abi": [
    {
      "constant": true,
      "inputs": [],
      "name": "owner",
      "outputs": [
        {
          "name": "",
          "type": "address"
        }
      ],
      "payable": false,
      "stateMutability": "view",
      "type": "function"
    },
    {
      "constant": true,
      "inputs": [],
      "name": "ownname",
      "outputs": [
        {
          "name": "",
          "type": "string"
        }
      ],
      "payable": false,
      "stateMutability": "view",
      "type": "function"
    },
    {
      "inputs": [],
      "payable": false,
      "stateMutability": "nonpayable",
      "type": "constructor"
    }
  ],
  "bytecode": "0x6060604052341561000f57600080fd5b336000806101000a81548173ffffffffffffffffffffffffffffffffffffffff021916908373ffffffffffffffffffffffffffffffffffffffff1602179055506040805190810160405280600981526020017f506170616e2044617300000000000000000000000000000000000000000000008152506001908051906020019061009a9291906100a0565b50610145565b828054600181600116156101000203166002900490600052602060002090601f016020900481019282601f106100e157805160ff191683800117855561010f565b8280016001018555821561010f579182015b8281111561010e5782518255916020019190600101906100f3565b5b50905061011c9190610120565b5090565b61014291905b8082111561013e576000816000905550600101610126565b5090565b90565b610223806101546000396000f30060606040526004361061004c576000357c0100000000000000000000000000000000000000000000000000000000900463ffffffff1680638da5cb5b14610051578063ebf4289b146100a6575b600080fd5b341561005c57600080fd5b610064610134565b604051808273ffffffffffffffffffffffffffffffffffffffff1673ffffffffffffffffffffffffffffffffffffffff16815260200191505060405180910390f35b34156100b157600080fd5b6100b9610159565b6040518080602001828103825283818151815260200191508051906020019080838360005b838110156100f95780820151818401526020810190506100de565b50505050905090810190601f1680156101265780820380516001836020036101000a031916815260200191505b509250505060405180910390f35b6000809054906101000a900473ffffffffffffffffffffffffffffffffffffffff1681565b60018054600181600116156101000203166002900480601f0160208091040260200160405190810160405280929190818152602001828054600181600116156101000203166002900480156101ef5780601f106101c4576101008083540402835291602001916101ef565b820191906000526020600020905b8154815290600101906020018083116101d257829003601f168201915b5050505050815600a165627a7a723058203120104a552f6601637bc3d4899728a2b43eedc2fc2131a1ca164e24659a82590029",
  "source": "pragma solidity ^0.4.17;\r\n\r\ncontract PTokenSales {\r\n    address public owner;\r\n    string public ownname;\r\n    \r\n    function PTokenSales () public {\r\n        owner = msg.sender;\r\n        ownname = \"Papan Das\";\r\n    }\r\n  \r\n}\r\n",
  "sourcePath": "C:\\xampp\\htdocs\\BLOCKCHAIN\\pcoin\\contracts\\PTokenSales.sol",
  "compiler": {
    "name": "solc",
    "version": "0.4.21+commit.dfe3193c.Emscripten.clang"
  },
  "schemaVersion": "2.0.0",
  "updatedAt": "2018-06-14T13:42:45.153Z"
}